{
  "contractName": "liquidDemocracy",
  "abi": [
    {
      "constant": true,
      "inputs": [
        {
          "name": "_userAddress",
          "type": "address"
        }
      ],
      "name": "_isRegisteredVoter",
      "outputs": [
        {
          "name": "_voterRegistration",
          "type": "bool"
        }
      ],
      "payable": false,
      "stateMutability": "view",
      "type": "function"
    },
    {
      "constant": false,
      "inputs": [
        {
          "name": "_userAddress",
          "type": "address"
        }
      ],
      "name": "readDelegate",
      "outputs": [
        {
          "name": "_delegateAddress",
          "type": "address"
        }
      ],
      "payable": false,
      "stateMutability": "nonpayable",
      "type": "function"
    },
    {
      "constant": true,
      "inputs": [
        {
          "name": "",
          "type": "address"
        }
      ],
      "name": "userToDelegate",
      "outputs": [
        {
          "name": "",
          "type": "address"
        }
      ],
      "payable": false,
      "stateMutability": "view",
      "type": "function"
    },
    {
      "constant": true,
      "inputs": [
        {
          "name": "_vote",
          "type": "uint256"
        }
      ],
      "name": "_isValidVoteOption",
      "outputs": [
        {
          "name": "",
          "type": "bool"
        }
      ],
      "payable": false,
      "stateMutability": "view",
      "type": "function"
    },
    {
      "constant": false,
      "inputs": [
        {
          "name": "_userAddress",
          "type": "address"
        }
      ],
      "name": "registerVoter",
      "outputs": [],
      "payable": false,
      "stateMutability": "nonpayable",
      "type": "function"
    },
    {
      "constant": true,
      "inputs": [],
      "name": "tally",
      "outputs": [
        {
          "name": "_votes",
          "type": "uint256[256]"
        },
        {
          "name": "_totalVotes",
          "type": "uint256"
        },
        {
          "name": "_emptyVotes",
          "type": "uint256"
        }
      ],
      "payable": false,
      "stateMutability": "view",
      "type": "function"
    },
    {
      "constant": false,
      "inputs": [
        {
          "name": "_userAddress",
          "type": "address"
        },
        {
          "name": "_value",
          "type": "uint256"
        }
      ],
      "name": "vote",
      "outputs": [],
      "payable": false,
      "stateMutability": "nonpayable",
      "type": "function"
    },
    {
      "constant": true,
      "inputs": [
        {
          "name": "",
          "type": "address"
        }
      ],
      "name": "userVotes",
      "outputs": [
        {
          "name": "",
          "type": "uint256"
        }
      ],
      "payable": false,
      "stateMutability": "view",
      "type": "function"
    },
    {
      "constant": true,
      "inputs": [],
      "name": "delegationDepth",
      "outputs": [
        {
          "name": "",
          "type": "uint256"
        }
      ],
      "payable": false,
      "stateMutability": "view",
      "type": "function"
    },
    {
      "constant": true,
      "inputs": [],
      "name": "delegatePeriodEnd",
      "outputs": [
        {
          "name": "",
          "type": "uint256"
        }
      ],
      "payable": false,
      "stateMutability": "view",
      "type": "function"
    },
    {
      "constant": false,
      "inputs": [
        {
          "name": "_userAddress",
          "type": "address"
        }
      ],
      "name": "revokeDelegation",
      "outputs": [],
      "payable": false,
      "stateMutability": "nonpayable",
      "type": "function"
    },
    {
      "constant": true,
      "inputs": [
        {
          "name": "_userAddress",
          "type": "address"
        }
      ],
      "name": "_isValidDelegate",
      "outputs": [
        {
          "name": "_delegateStatus",
          "type": "bool"
        }
      ],
      "payable": false,
      "stateMutability": "view",
      "type": "function"
    },
    {
      "constant": true,
      "inputs": [
        {
          "name": "",
          "type": "address"
        }
      ],
      "name": "willingToBeDelegate",
      "outputs": [
        {
          "name": "",
          "type": "bool"
        }
      ],
      "payable": false,
      "stateMutability": "view",
      "type": "function"
    },
    {
      "constant": false,
      "inputs": [
        {
          "name": "_userAddress",
          "type": "address"
        }
      ],
      "name": "becomeDelegate",
      "outputs": [],
      "payable": false,
      "stateMutability": "nonpayable",
      "type": "function"
    },
    {
      "constant": true,
      "inputs": [],
      "name": "finalDecision",
      "outputs": [
        {
          "name": "_finalDecision",
          "type": "uint256"
        },
        {
          "name": "_finalDecisionTally",
          "type": "uint256"
        }
      ],
      "payable": false,
      "stateMutability": "view",
      "type": "function"
    },
    {
      "constant": true,
      "inputs": [],
      "name": "validVoteArray",
      "outputs": [
        {
          "name": "",
          "type": "bytes32"
        }
      ],
      "payable": false,
      "stateMutability": "view",
      "type": "function"
    },
    {
      "constant": true,
      "inputs": [],
      "name": "proposalMetaData",
      "outputs": [
        {
          "name": "",
          "type": "bytes32"
        }
      ],
      "payable": false,
      "stateMutability": "view",
      "type": "function"
    },
    {
      "constant": true,
      "inputs": [],
      "name": "pctQuorum",
      "outputs": [
        {
          "name": "",
          "type": "uint256"
        }
      ],
      "payable": false,
      "stateMutability": "view",
      "type": "function"
    },
    {
      "constant": true,
      "inputs": [
        {
          "name": "_userAddress",
          "type": "address"
        },
        {
          "name": "_recursionCount",
          "type": "uint256"
        }
      ],
      "name": "readEndVoter",
      "outputs": [
        {
          "name": "",
          "type": "address"
        }
      ],
      "payable": false,
      "stateMutability": "view",
      "type": "function"
    },
    {
      "constant": false,
      "inputs": [
        {
          "name": "_userAddress",
          "type": "address"
        },
        {
          "name": "_delegateAddress",
          "type": "address"
        }
      ],
      "name": "delegateVote",
      "outputs": [],
      "payable": false,
      "stateMutability": "nonpayable",
      "type": "function"
    },
    {
      "constant": true,
      "inputs": [],
      "name": "pctThreshold",
      "outputs": [
        {
          "name": "",
          "type": "uint256"
        }
      ],
      "payable": false,
      "stateMutability": "view",
      "type": "function"
    },
    {
      "constant": true,
      "inputs": [
        {
          "name": "_userAddress",
          "type": "address"
        },
        {
          "name": "_recursionCount",
          "type": "uint256"
        }
      ],
      "name": "readVote",
      "outputs": [
        {
          "name": "",
          "type": "uint256"
        }
      ],
      "payable": false,
      "stateMutability": "view",
      "type": "function"
    },
    {
      "constant": true,
      "inputs": [],
      "name": "votePeriodEnd",
      "outputs": [
        {
          "name": "",
          "type": "uint256"
        }
      ],
      "payable": false,
      "stateMutability": "view",
      "type": "function"
    },
    {
      "constant": true,
      "inputs": [
        {
          "name": "_userAddress",
          "type": "address"
        },
        {
          "name": "_recursionCount",
          "type": "uint256"
        }
      ],
      "name": "_isValidChainDepthAndNonCircular",
      "outputs": [
        {
          "name": "_valid",
          "type": "bool"
        },
        {
          "name": "_vDepth",
          "type": "bool"
        },
        {
          "name": "_vCircle",
          "type": "bool"
        }
      ],
      "payable": false,
      "stateMutability": "view",
      "type": "function"
    },
    {
      "inputs": [
        {
          "name": "_delegatePeriodEnd",
          "type": "uint256"
        },
        {
          "name": "_votePeriodEnd",
          "type": "uint256"
        },
        {
          "name": "_delegationDepth",
          "type": "uint256"
        },
        {
          "name": "_pctQuorum",
          "type": "uint256"
        },
        {
          "name": "_pctThreshold",
          "type": "uint256"
        },
        {
          "name": "_proposalMetaData",
          "type": "bytes32"
        },
        {
          "name": "_validVoteArray",
          "type": "bytes32"
        }
      ],
      "payable": false,
      "stateMutability": "nonpayable",
      "type": "constructor"
    },
    {
      "payable": true,
      "stateMutability": "payable",
      "type": "fallback"
    }
  ],
  "bytecode": "0x6060604052341561000f57600080fd5b60405160e0806116d08339810160405280805190602001909190805190602001909190805190602001909190805190602001909190805190602001909190805190602001909190805190602001909190505086600081905550856001819055508460048190555083600281905550826003819055508160058160001916905550806006816000191690555050505050505050611620806100b06000396000f30060606040526004361061013e576000357c0100000000000000000000000000000000000000000000000000000000900463ffffffff168063065df2ff14610143578063100ab51b14610194578063178926291461020d5780632e0532e81461028657806338db6dd3146102c1578063410673e5146102fa5780635f74bbde1461035a578063621901501461039c5780636fc4398f146103e957806376f1550014610412578063808d50141461043b57806385d01631146104745780639a8e3e2d146104c5578063d1f9e49c14610516578063d474b9ce1461054f578063d65aad511461057f578063d6e6d4c4146105b0578063d6ec92b3146105e1578063dea8057a1461060a578063e5ed5b1e1461068c578063e7d5c0ae146106e4578063e831d0181461070d578063fa6ed5db14610763578063fb7a28301461078c575b600080fd5b341561014e57600080fd5b61017a600480803573ffffffffffffffffffffffffffffffffffffffff169060200190919050506107fc565b604051808215151515815260200191505060405180910390f35b341561019f57600080fd5b6101cb600480803573ffffffffffffffffffffffffffffffffffffffff1690602001909190505061086a565b604051808273ffffffffffffffffffffffffffffffffffffffff1673ffffffffffffffffffffffffffffffffffffffff16815260200191505060405180910390f35b341561021857600080fd5b610244600480803573ffffffffffffffffffffffffffffffffffffffff169060200190919050506108d3565b604051808273ffffffffffffffffffffffffffffffffffffffff1673ffffffffffffffffffffffffffffffffffffffff16815260200191505060405180910390f35b341561029157600080fd5b6102a76004808035906020019091905050610906565b604051808215151515815260200191505060405180910390f35b34156102cc57600080fd5b6102f8600480803573ffffffffffffffffffffffffffffffffffffffff169060200190919050506109ba565b005b341561030557600080fd5b61030d610ad7565b604051808461010060200280838360005b8381101561033957808201518184015260208101905061031e565b50505050905001838152602001828152602001935050505060405180910390f35b341561036557600080fd5b61039a600480803573ffffffffffffffffffffffffffffffffffffffff16906020019091908035906020019091905050610b9c565b005b34156103a757600080fd5b6103d3600480803573ffffffffffffffffffffffffffffffffffffffff16906020019091905050610cb7565b6040518082815260200191505060405180910390f35b34156103f457600080fd5b6103fc610ccf565b6040518082815260200191505060405180910390f35b341561041d57600080fd5b610425610cd5565b6040518082815260200191505060405180910390f35b341561044657600080fd5b610472600480803573ffffffffffffffffffffffffffffffffffffffff16906020019091905050610cdb565b005b341561047f57600080fd5b6104ab600480803573ffffffffffffffffffffffffffffffffffffffff16906020019091905050610dcf565b604051808215151515815260200191505060405180910390f35b34156104d057600080fd5b6104fc600480803573ffffffffffffffffffffffffffffffffffffffff16906020019091905050610e3d565b604051808215151515815260200191505060405180910390f35b341561052157600080fd5b61054d600480803573ffffffffffffffffffffffffffffffffffffffff16906020019091905050610e5d565b005b341561055a57600080fd5b610562610ed5565b604051808381526020018281526020019250505060405180910390f35b341561058a57600080fd5b610592610fba565b60405180826000191660001916815260200191505060405180910390f35b34156105bb57600080fd5b6105c3610fc0565b60405180826000191660001916815260200191505060405180910390f35b34156105ec57600080fd5b6105f4610fc6565b6040518082815260200191505060405180910390f35b341561061557600080fd5b61064a600480803573ffffffffffffffffffffffffffffffffffffffff16906020019091908035906020019091905050610fcc565b604051808273ffffffffffffffffffffffffffffffffffffffff1673ffffffffffffffffffffffffffffffffffffffff16815260200191505060405180910390f35b341561069757600080fd5b6106e2600480803573ffffffffffffffffffffffffffffffffffffffff1690602001909190803573ffffffffffffffffffffffffffffffffffffffff169060200190919050506110dd565b005b34156106ef57600080fd5b6106f76111cc565b6040518082815260200191505060405180910390f35b341561071857600080fd5b61074d600480803573ffffffffffffffffffffffffffffffffffffffff169060200190919080359060200190919050506111d2565b6040518082815260200191505060405180910390f35b341561076e57600080fd5b610776611322565b6040518082815260200191505060405180910390f35b341561079757600080fd5b6107cc600480803573ffffffffffffffffffffffffffffffffffffffff16906020019091908035906020019091905050611328565b60405180841515151581526020018315151515815260200182151515158152602001935050505060405180910390f35b600060011515600760008473ffffffffffffffffffffffffffffffffffffffff1673ffffffffffffffffffffffffffffffffffffffff16815260200190815260200160002060009054906101000a900460ff16151514156108605760019050610865565b600090505b919050565b6000600a60008373ffffffffffffffffffffffffffffffffffffffff1673ffffffffffffffffffffffffffffffffffffffff16815260200190815260200160002060009054906101000a900473ffffffffffffffffffffffffffffffffffffffff169050919050565b600a6020528060005260406000206000915054906101000a900473ffffffffffffffffffffffffffffffffffffffff1681565b600080600060065460088581151561091a57fe5b0460208110151561092757fe5b1a7f010000000000000000000000000000000000000000000000000000000000000002915060088481151561095857fe5b0660070390508060020a7f01000000000000000000000000000000000000000000000000000000000000000282167f0100000000000000000000000000000000000000000000000000000000000000900460ff168160020a1492505050919050565b60001515600760008373ffffffffffffffffffffffffffffffffffffffff1673ffffffffffffffffffffffffffffffffffffffff16815260200190815260200160002060009054906101000a900460ff161515141515610a1957600080fd5b60088054806001018281610a2d9190611579565b9160005260206000209001600083909190916101000a81548173ffffffffffffffffffffffffffffffffffffffff021916908373ffffffffffffffffffffffffffffffffffffffff160217905550506001600760008373ffffffffffffffffffffffffffffffffffffffff1673ffffffffffffffffffffffffffffffffffffffff16815260200190815260200160002060006101000a81548160ff02191690831515021790555050565b610adf6115a5565b600080600080600091505b600880549050821015610b8c57610b3c600883815481101515610b0957fe5b906000526020600020900160009054906101000a900473ffffffffffffffffffffffffffffffffffffffff1660006111d2565b9050846001820161010081101515610b5057fe5b602002018051809190600101815250506000811115610b76578380600101945050610b7f565b82806001019350505b8180600101925050610aea565b8484849450945094505050909192565b8160011515610baa826107fc565b1515141515610bb857600080fd5b8260001515610bc6826114e6565b1515141515610bd457600080fd5b8360011515600b60008373ffffffffffffffffffffffffffffffffffffffff1673ffffffffffffffffffffffffffffffffffffffff16815260200190815260200160002060009054906101000a900460ff1615151415610c3f5760005442101515610c3e57600080fd5b5b8360011515610c4d82610906565b1515141515610c5b57600080fd5b60015442101515610c6b57600080fd5b84600960008873ffffffffffffffffffffffffffffffffffffffff1673ffffffffffffffffffffffffffffffffffffffff16815260200190815260200160002081905550505050505050565b60096020528060005260406000206000915090505481565b60045481565b60005481565b8060011515610ce9826107fc565b1515141515610cf757600080fd5b60015442101515610d0757600080fd5b6000600960008473ffffffffffffffffffffffffffffffffffffffff1673ffffffffffffffffffffffffffffffffffffffff168152602001908152602001600020819055506000600a60008473ffffffffffffffffffffffffffffffffffffffff1673ffffffffffffffffffffffffffffffffffffffff16815260200190815260200160002060006101000a81548173ffffffffffffffffffffffffffffffffffffffff021916908373ffffffffffffffffffffffffffffffffffffffff1602179055505050565b600060011515600b60008473ffffffffffffffffffffffffffffffffffffffff1673ffffffffffffffffffffffffffffffffffffffff16815260200190815260200160002060009054906101000a900460ff1615151415610e335760019050610e38565b600090505b919050565b600b6020528060005260406000206000915054906101000a900460ff1681565b8060011515610e6b826107fc565b1515141515610e7957600080fd5b6001600b60008473ffffffffffffffffffffffffffffffffffffffff1673ffffffffffffffffffffffffffffffffffffffff16815260200190815260200160002060006101000a81548160ff0219169083151502179055505050565b600080600080610ee36115a5565b6000806000610ef0610ad7565b80975081985082965050505060025460088054905060648802811515610f1257fe5b041015610f26576000975060009650610faf565b6000925060009150600090505b610100811015610f7f5781848261010081101515610f4d57fe5b60200201511115610f7257838161010081101515610f6757fe5b602002015191508092505b8080600101915050610f33565b6003548660648402811515610f9057fe5b041115610fa257829750819650610fb0565b6000975060009650610fb0565b5b5050505050509091565b60065481565b60055481565b60025481565b6000600454821115610fe157600090506110d7565b6000600a60008573ffffffffffffffffffffffffffffffffffffffff1673ffffffffffffffffffffffffffffffffffffffff16815260200190815260200160002060009054906101000a900473ffffffffffffffffffffffffffffffffffffffff1673ffffffffffffffffffffffffffffffffffffffff161415156110d3576110cc600a60008573ffffffffffffffffffffffffffffffffffffffff1673ffffffffffffffffffffffffffffffffffffffff16815260200190815260200160002060009054906101000a900473ffffffffffffffffffffffffffffffffffffffff1660018401610fcc565b90506110d7565b8290505b92915050565b81600115156110eb826107fc565b15151415156110f957600080fd5b816001151561110782610dcf565b151514151561111557600080fd5b836000611123826000611328565b9050508091505080151561113657600080fd5b6000544210151561114657600080fd5b84600a60008873ffffffffffffffffffffffffffffffffffffffff1673ffffffffffffffffffffffffffffffffffffffff16815260200190815260200160002060006101000a81548173ffffffffffffffffffffffffffffffffffffffff021916908373ffffffffffffffffffffffffffffffffffffffff160217905550505050505050565b60035481565b60006004548211156111e7576000905061131c565b6000600a60008573ffffffffffffffffffffffffffffffffffffffff1673ffffffffffffffffffffffffffffffffffffffff16815260200190815260200160002060009054906101000a900473ffffffffffffffffffffffffffffffffffffffff1673ffffffffffffffffffffffffffffffffffffffff161415156112d9576112d2600a60008573ffffffffffffffffffffffffffffffffffffffff1673ffffffffffffffffffffffffffffffffffffffff16815260200190815260200160002060009054906101000a900473ffffffffffffffffffffffffffffffffffffffff16600184016111d2565b905061131c565b600960008473ffffffffffffffffffffffffffffffffffffffff1673ffffffffffffffffffffffffffffffffffffffff1681526020019081526020016000205490505b92915050565b60015481565b60008060006004548411156113445760019150600092506114df565b6000600a60008773ffffffffffffffffffffffffffffffffffffffff1673ffffffffffffffffffffffffffffffffffffffff16815260200190815260200160002060009054906101000a900473ffffffffffffffffffffffffffffffffffffffff1673ffffffffffffffffffffffffffffffffffffffff161415156114da578473ffffffffffffffffffffffffffffffffffffffff16600a60008773ffffffffffffffffffffffffffffffffffffffff1673ffffffffffffffffffffffffffffffffffffffff16815260200190815260200160002060009054906101000a900473ffffffffffffffffffffffffffffffffffffffff1673ffffffffffffffffffffffffffffffffffffffff1614156114635760009250600190506114df565b6114cf600a60008773ffffffffffffffffffffffffffffffffffffffff1673ffffffffffffffffffffffffffffffffffffffff16815260200190815260200160002060009054906101000a900473ffffffffffffffffffffffffffffffffffffffff1660018601611328565b9250925092506114df565b600192505b9250925092565b600080600a60008473ffffffffffffffffffffffffffffffffffffffff1673ffffffffffffffffffffffffffffffffffffffff16815260200190815260200160002060009054906101000a900473ffffffffffffffffffffffffffffffffffffffff1673ffffffffffffffffffffffffffffffffffffffff1614151561156f5760019050611574565b600090505b919050565b8154818355818115116115a05781836000526020600020918201910161159f91906115cf565b5b505050565b61200060405190810160405280610100905b60008152602001906001900390816115b75790505090565b6115f191905b808211156115ed5760008160009055506001016115d5565b5090565b905600a165627a7a723058202b59fbbe86f689a2f6c9c972a81e43261746cfb67012dfebbfe6e303662b4a950029",
  "source": "pragma solidity ^0.4.17;\n\n/*import \"./ldInterface.sol\";*/\nimport \"zeppelin-solidity/contracts/math/SafeMath.sol\";\n\n\ncontract liquidDemocracy {\n  using SafeMath for uint;\n\n  /*\n  Glossary:\n\n  Common Vote Option Values Are:\n  *** All options assume 0 index is used for a null vote ***\n  *** See pattern below to extrapolate correct hex value for n options ***\n  Zero Options = 0x8000000000000000000000000000000000000000000000000000000000000000 (Null Vote)\n  One option = 0xc000000000000000000000000000000000000000000000000000000000000000\n  Two options = 0xe000000000000000000000000000000000000000000000000000000000000000 (Binary Vote)\n  Three options = 0xf000000000000000000000000000000000000000000000000000000000000000\n  Four options = 0xf800000000000000000000000000000000000000000000000000000000000000\n  Five options = 0xfc00000000000000000000000000000000000000000000000000000000000000\n  Six options = 0xfe00000000000000000000000000000000000000000000000000000000000000\n  Seven options = 0xfd00000000000000000000000000000000000000000000000000000000000000\n  Eight options = 0xff00000000000000000000000000000000000000000000000000000000000000\n  Sixteen options = 0xffff000000000000000000000000000000000000000000000000000000000000\n  81 options = 0xffffffffffffffffffffc0000000000000000000000000000000000000000000\n  255 options = 0xffffffffffffffffffffffffffffffffffffffffffffffffffffffffffffffff\n\n  pctQuorum: Percentage of registered voters who have responded in order to consider the poll valid.\n\n  threshold: Percentage of votes needed toward a particular option to make that option successful.\n\n  Absolute Thresahold (potential feature): ex. 51% of 100 voters, or 100% of 51 voters\n\n  */\n\n  /* times written as seconds since unix epoch*/\n  /*end of delegate period*/\n  uint public delegatePeriodEnd;\n  /*end of vote period*/\n  uint public votePeriodEnd;\n  /*percentage of registered voters rsponding needed to acheive valid poll*/\n  uint public pctQuorum;\n  /*percentage of votes toward a particular option needed to acheive successful option*/\n  uint public pctThreshold;\n  /*limits number of delegates removed from original user*/\n  uint public delegationDepth;\n  /*possible IPFS hash of proposal metadata*/\n  bytes32 public proposalMetaData;\n  /*256 bit array that holds the validity of each possible vote option. Options are referenced and defined in poll metadata. */\n  bytes32 public validVoteArray;\n\n\n\n  /*redundant voter registers solve for different major issues when each is used individually*/\n\n  /*tracks user registration and single signup*/\n  mapping (address => bool) internal registeredVotersMap;\n\n  /*allows contract to iterate over voters to tally votes and follow delegation chains*/\n  address[] internal registeredVotersArray;\n\n  /*0 equals no vote, other values will equate to those set in vote initialization*/\n  mapping (address => uint) public userVotes;\n\n\n\n  /*points to voter delegate*/\n  mapping (address => address) public userToDelegate;\n\n  /* mapping of valid delegates */\n  mapping (address => bool) public willingToBeDelegate;\n\n\n  /*verifies delegate period open*/\n  modifier delegatePeriodOpen(){\n    require(block.timestamp < delegatePeriodEnd);\n    _;\n  }\n\n  /*verifies vote period open*/\n  modifier votePeriodOpen(){\n    require(block.timestamp < votePeriodEnd);\n    _;\n  }\n\n  /*would clean and reduce modifiers and helper functions for production*/\n  /*verifies voter is registered*/\n    modifier isRegisteredVoter(address _userAddress) {\n        require(_isRegisteredVoter(_userAddress) == true);\n      _;\n    }\n    /*verifies delegate is valid*/\n    modifier isValidDelegate(address _userAddress) {\n      require(_isValidDelegate(_userAddress) == true);\n      _;\n    }\n    /*verifies if vote is delegated*/\n    modifier isVoteDelegated(address _userAddress) {\n      require(_isVoteDelegated(_userAddress) == false);\n      _;\n    }\n    /*verifies if vote is delegated*/\n    modifier isValidVoteOption(uint _vote) {\n      require(_isValidVoteOption(_vote) == true);\n      _;\n    }\n    modifier isValidChainDepthAndNonCircular(address _userAddress) {\n      bool bValid;\n      (bValid,,) =_isValidChainDepthAndNonCircular(_userAddress, 0);\n      require(bValid);\n      _;\n    }\n    modifier isVoterDelegateAndDelegatePeriodOpen(address _userAddress) {\n      if (willingToBeDelegate[_userAddress] == true) {\n        require(block.timestamp < delegatePeriodEnd);\n      }\n      _;\n    }\n\n  function liquidDemocracy(\n    uint _delegatePeriodEnd,\n    uint _votePeriodEnd,\n    uint _delegationDepth,\n    uint _pctQuorum,\n    uint _pctThreshold,\n    bytes32 _proposalMetaData,\n    bytes32 _validVoteArray\n    ) public {\n      delegatePeriodEnd = _delegatePeriodEnd;\n      votePeriodEnd = _votePeriodEnd;\n      delegationDepth = _delegationDepth;\n      pctQuorum = _pctQuorum;\n      pctThreshold = _pctThreshold;\n      proposalMetaData = _proposalMetaData;\n      validVoteArray = _validVoteArray;\n  }\n\n  /*allows voter to register for proposal*/\n  function registerVoter(address _userAddress)\n  external\n  {\n\n    require(registeredVotersMap[_userAddress] == false);\n\n    registeredVotersArray.push(_userAddress);\n    registeredVotersMap[_userAddress] = true;\n\n  }\n\n  /*allows user to offer themselves as a delegate*/\n  function becomeDelegate(address _userAddress)\n  external\n  isRegisteredVoter(_userAddress)\n  {\n    willingToBeDelegate[_userAddress] = true;\n  }\n\n  /*Instead of using bytes32 as 256 bit array, could potentially use enums... not sure pros/cons of each*/\n  /*allows user to vote a value\n  todo: rewrite tests for voting*/\n  function vote(address _userAddress, uint _value)\n  external\n  isRegisteredVoter(_userAddress)\n  isVoteDelegated(_userAddress)\n  isVoterDelegateAndDelegatePeriodOpen(_userAddress)\n  isValidVoteOption(_value)\n  votePeriodOpen()\n  {\n    userVotes[_userAddress] = _value;\n\n  }\n\n  /*need to verify chain depth and check circular delegation*/\n\n  /* allows user to delegate their vote to another user who is a valid delegeate*/\n  function delegateVote(address _userAddress, address _delegateAddress)\n  external\n  isRegisteredVoter(_userAddress)\n  isValidDelegate(_delegateAddress)\n  isValidChainDepthAndNonCircular(_userAddress)\n  delegatePeriodOpen()\n  {\n\n    userToDelegate[_userAddress] = _delegateAddress;\n\n  }\n\n  /*allows user to read their vote or their delegate's vote\n  returns users vote*/\n  function readVote(address _userAddress, uint _recursionCount)\n  public view\n  returns (uint)\n  {\n\n    if(_recursionCount > delegationDepth){\n        return 0;\n    }\n\n    if (userToDelegate[_userAddress] != 0x0) {\n      return readVote(userToDelegate[_userAddress], _recursionCount + 1);\n    } else {\n      return userVotes[_userAddress];\n    }\n  }\n\n  function readEndVoter(address _userAddress, uint _recursionCount) public view returns(address){\n\n    if(_recursionCount > delegationDepth){\n     return 0x0;\n    }\n\n    if (userToDelegate[_userAddress] != 0x0) {\n      return readEndVoter(userToDelegate[_userAddress], _recursionCount + 1);\n    } else {\n      return _userAddress;\n    }\n  }\n\n\n  /*allows user to read user they delegated their vote to*/\n  function readDelegate(address _userAddress)\n  external\n  returns (address _delegateAddress)\n  {\n    return userToDelegate[_userAddress];\n  }\n\n  /*allows user to revoke their delegation if they disagree with delegates vote*/\n  function revokeDelegation(address _userAddress)\n  public\n  isRegisteredVoter(_userAddress)\n  votePeriodOpen()\n  {\n\n    userVotes[_userAddress] = 0;\n    userToDelegate[_userAddress] = 0;\n\n  }\n\n\n  //todo: how to handle final decision and runoff conditions\n  /*if we can make this a view functtion, that would be ideal*/\n  function finalDecision()\n  public\n  view\n  returns (uint _finalDecision, uint _finalDecisionTally)\n  {\n\n    uint totalVotes;\n    uint emptyVotes;\n    uint[256] memory _votes;\n\n    (_votes, totalVotes, emptyVotes) = tally();\n\n\n    if ((totalVotes * 100) / (registeredVotersArray.length) < pctQuorum) {\n      _finalDecision = 0;\n      _finalDecisionTally = 0;\n    } else {\n\n      uint highestVoteHold = 0;\n      uint highestVoteValueHold = 0;\n\n        for (uint i = 0; i < _votes.length; i++) {\n          if (_votes[i] > highestVoteValueHold) {\n            highestVoteValueHold = _votes[i];\n            highestVoteHold = i;\n          }\n        }\n\n        if (((highestVoteValueHold * 100) / totalVotes) > pctThreshold) {\n          _finalDecision = highestVoteHold;\n          _finalDecisionTally = highestVoteValueHold;\n          return;\n        } else {\n          _finalDecision = 0;\n          _finalDecisionTally = 0;\n          return;\n        }\n    }\n  }\n\n  /*allows user tally votes at */\n  function tally()\n  public view\n  returns (uint[256] _votes, uint _totalVotes, uint _emptyVotes)\n  {\n\n    //todo: how to handle vote validation and initialization\n    for (uint i = 0; i < registeredVotersArray.length; i++){\n      uint vote = readVote(registeredVotersArray[i], 0);\n      _votes[vote + 1]++;\n\n      if(vote > 0){\n          _totalVotes++;\n      } else {\n          _emptyVotes++;\n      }\n\n    }\n\n    return (_votes, _totalVotes, _emptyVotes);\n  }\n\n function _isValidVoteOption(uint _vote) public view returns(bool){\n      byte MyByte = validVoteArray[_vote / 8];\n      uint MyPosition = 7 - (_vote % 8);\n\n     return  2**MyPosition == uint8(MyByte & byte(2**MyPosition));\n\n }\n\n function _isValidChainDepthAndNonCircular(address _userAddress, uint _recursionCount) public view returns(bool _valid, bool _vDepth, bool _vCircle){\n\n   if(_recursionCount > delegationDepth){\n     _vDepth = true;\n     _valid = false;\n     return;\n   }\n\n   if (userToDelegate[_userAddress] != 0x0) {\n     if (userToDelegate[_userAddress] == _userAddress) {\n       _valid = false;\n       _vCircle = true;\n       return;\n     }\n     return _isValidChainDepthAndNonCircular(userToDelegate[_userAddress], _recursionCount + 1);\n   } else {\n     _valid = true;\n     return;\n   }\n }\n\n  /*these addtional functions allow me to test contract. would remove bottom two for production and implement in modifier*/\n\n  function _isVoteDelegated(address _userAddress)\n  view\n   internal\n   returns (bool _voteStatus){\n    if (userToDelegate[_userAddress] != 0x0) {\n      return true;\n    } else {\n      return false;\n    }\n  }\n\n  function _isRegisteredVoter(address _userAddress)\n  view\n   public\n   returns (bool _voterRegistration){\n    if (registeredVotersMap[_userAddress] == true) {\n      return true;\n    } else {\n      return false;\n    }\n  }\n\n  function _isValidDelegate(address _userAddress)\n  view\n   public\n   returns (bool _delegateStatus){\n    if (willingToBeDelegate[_userAddress] == true) {\n      return true;\n    } else {\n      return false;\n    }\n  }\n\n  function () external payable {\n    revert();\n  }\n\n}\n",
  "sourcePath": "/Users/seagraves_kevin/Desktop/ethDenver/liquidDemocracy/contracts/liquidDemocracy.sol",
  "compiler": {
    "name": "solc",
    "version": "0.4.18+commit.9cf6e910.Emscripten.clang"
  },
  "schemaVersion": "1.0.1",
  "updatedAt": "2018-02-26T23:33:08.889Z"
}