{
  "contractName": "liquidDemocracy",
  "abi": [
    {
      "constant": true,
      "inputs": [
        {
          "name": "_userAddress",
          "type": "address"
        }
      ],
      "name": "_isRegisteredVoter",
      "outputs": [
        {
          "name": "_voterRegistration",
          "type": "bool"
        }
      ],
      "payable": false,
      "stateMutability": "view",
      "type": "function"
    },
    {
      "constant": false,
      "inputs": [
        {
          "name": "_userAddress",
          "type": "address"
        }
      ],
      "name": "registerVoter",
      "outputs": [],
      "payable": false,
      "stateMutability": "nonpayable",
      "type": "function"
    },
    {
      "constant": false,
      "inputs": [
        {
          "name": "_userAddress",
          "type": "address"
        }
      ],
      "name": "voteNay",
      "outputs": [],
      "payable": false,
      "stateMutability": "nonpayable",
      "type": "function"
    },
    {
      "constant": false,
      "inputs": [
        {
          "name": "_userAddress",
          "type": "address"
        }
      ],
      "name": "voteYea",
      "outputs": [],
      "payable": false,
      "stateMutability": "nonpayable",
      "type": "function"
    },
    {
      "constant": true,
      "inputs": [],
      "name": "delegatePeriodEnd",
      "outputs": [
        {
          "name": "",
          "type": "uint256"
        }
      ],
      "payable": false,
      "stateMutability": "view",
      "type": "function"
    },
    {
      "constant": false,
      "inputs": [
        {
          "name": "_userAddress",
          "type": "address"
        }
      ],
      "name": "revokeDelegation",
      "outputs": [],
      "payable": false,
      "stateMutability": "nonpayable",
      "type": "function"
    },
    {
      "constant": true,
      "inputs": [
        {
          "name": "_userAddress",
          "type": "address"
        }
      ],
      "name": "_isValidDelegate",
      "outputs": [
        {
          "name": "_delegateStatus",
          "type": "bool"
        }
      ],
      "payable": false,
      "stateMutability": "view",
      "type": "function"
    },
    {
      "constant": true,
      "inputs": [
        {
          "name": "_userAddress",
          "type": "address"
        }
      ],
      "name": "readVote",
      "outputs": [
        {
          "name": "_userVote",
          "type": "uint256"
        }
      ],
      "payable": false,
      "stateMutability": "view",
      "type": "function"
    },
    {
      "constant": true,
      "inputs": [],
      "name": "proposalMetaData",
      "outputs": [
        {
          "name": "",
          "type": "bytes32"
        }
      ],
      "payable": false,
      "stateMutability": "view",
      "type": "function"
    },
    {
      "constant": true,
      "inputs": [],
      "name": "pctQuorum",
      "outputs": [
        {
          "name": "",
          "type": "uint256"
        }
      ],
      "payable": false,
      "stateMutability": "view",
      "type": "function"
    },
    {
      "constant": true,
      "inputs": [],
      "name": "decision",
      "outputs": [
        {
          "name": "_yeas",
          "type": "uint256"
        },
        {
          "name": "_nays",
          "type": "uint256"
        },
        {
          "name": "_totalVotes",
          "type": "uint256"
        },
        {
          "name": "_emptyVotes",
          "type": "uint256"
        },
        {
          "name": "_pctQuorum",
          "type": "uint256"
        },
        {
          "name": "_decision",
          "type": "uint256"
        }
      ],
      "payable": false,
      "stateMutability": "view",
      "type": "function"
    },
    {
      "constant": true,
      "inputs": [
        {
          "name": "_userAddress",
          "type": "address"
        }
      ],
      "name": "readEndVoter",
      "outputs": [
        {
          "name": "_endVoterAddress",
          "type": "address"
        }
      ],
      "payable": false,
      "stateMutability": "view",
      "type": "function"
    },
    {
      "constant": false,
      "inputs": [
        {
          "name": "_userAddress",
          "type": "address"
        },
        {
          "name": "_delegateAddress",
          "type": "address"
        }
      ],
      "name": "delegateVote",
      "outputs": [],
      "payable": false,
      "stateMutability": "nonpayable",
      "type": "function"
    },
    {
      "constant": false,
      "inputs": [
        {
          "name": "_userAddress",
          "type": "address"
        }
      ],
      "name": "allowDelegation",
      "outputs": [],
      "payable": false,
      "stateMutability": "nonpayable",
      "type": "function"
    },
    {
      "constant": true,
      "inputs": [],
      "name": "votePeriodEnd",
      "outputs": [
        {
          "name": "",
          "type": "uint256"
        }
      ],
      "payable": false,
      "stateMutability": "view",
      "type": "function"
    },
    {
      "payable": true,
      "stateMutability": "payable",
      "type": "fallback"
    }
  ],
  "bytecode": "0x6060604052341561000f57600080fd5b6110188061001e6000396000f3006060604052600436106100db576000357c0100000000000000000000000000000000000000000000000000000000900463ffffffff168063065df2ff146100e057806338db6dd31461013157806367ae87e61461016a5780636f97fc51146101a357806376f15500146101dc578063808d50141461020557806385d016311461023e578063d28c9ad01461028f578063d6e6d4c4146102dc578063d6ec92b31461030d578063e4d7c28c14610336578063e4e9311f14610382578063e5ed5b1e146103fb578063eaa223fd14610453578063fa6ed5db1461048c575b600080fd5b34156100eb57600080fd5b610117600480803573ffffffffffffffffffffffffffffffffffffffff169060200190919050506104b5565b604051808215151515815260200191505060405180910390f35b341561013c57600080fd5b610168600480803573ffffffffffffffffffffffffffffffffffffffff16906020019091905050610523565b005b341561017557600080fd5b6101a1600480803573ffffffffffffffffffffffffffffffffffffffff16906020019091905050610640565b005b34156101ae57600080fd5b6101da600480803573ffffffffffffffffffffffffffffffffffffffff169060200190919050506106c2565b005b34156101e757600080fd5b6101ef610744565b6040518082815260200191505060405180910390f35b341561021057600080fd5b61023c600480803573ffffffffffffffffffffffffffffffffffffffff1690602001909190505061074a565b005b341561024957600080fd5b610275600480803573ffffffffffffffffffffffffffffffffffffffff1690602001909190505061082e565b604051808215151515815260200191505060405180910390f35b341561029a57600080fd5b6102c6600480803573ffffffffffffffffffffffffffffffffffffffff1690602001909190505061089c565b6040518082815260200191505060405180910390f35b34156102e757600080fd5b6102ef610a45565b60405180826000191660001916815260200191505060405180910390f35b341561031857600080fd5b610320610a4b565b6040518082815260200191505060405180910390f35b341561034157600080fd5b610349610a51565b60405180878152602001868152602001858152602001848152602001838152602001828152602001965050505050505060405180910390f35b341561038d57600080fd5b6103b9600480803573ffffffffffffffffffffffffffffffffffffffff16906020019091905050610c1c565b604051808273ffffffffffffffffffffffffffffffffffffffff1673ffffffffffffffffffffffffffffffffffffffff16815260200191505060405180910390f35b341561040657600080fd5b610451600480803573ffffffffffffffffffffffffffffffffffffffff1690602001909190803573ffffffffffffffffffffffffffffffffffffffff16906020019091905050610d86565b005b341561045e57600080fd5b61048a600480803573ffffffffffffffffffffffffffffffffffffffff16906020019091905050610e87565b005b341561049757600080fd5b61049f610eff565b6040518082815260200191505060405180910390f35b600060011515600460008473ffffffffffffffffffffffffffffffffffffffff1673ffffffffffffffffffffffffffffffffffffffff16815260200190815260200160002060009054906101000a900460ff1615151415610519576001905061051e565b600090505b919050565b60001515600460008373ffffffffffffffffffffffffffffffffffffffff1673ffffffffffffffffffffffffffffffffffffffff16815260200190815260200160002060009054906101000a900460ff16151514151561058257600080fd5b600580548060010182816105969190610f9b565b9160005260206000209001600083909190916101000a81548173ffffffffffffffffffffffffffffffffffffffff021916908373ffffffffffffffffffffffffffffffffffffffff160217905550506001600460008373ffffffffffffffffffffffffffffffffffffffff1673ffffffffffffffffffffffffffffffffffffffff16815260200190815260200160002060006101000a81548160ff02191690831515021790555050565b806001151561064e826104b5565b151514151561065c57600080fd5b816000151561066a82610f05565b151514151561067857600080fd5b6002600660008573ffffffffffffffffffffffffffffffffffffffff1673ffffffffffffffffffffffffffffffffffffffff16815260200190815260200160002081905550505050565b80600115156106d0826104b5565b15151415156106de57600080fd5b81600015156106ec82610f05565b15151415156106fa57600080fd5b6001600660008573ffffffffffffffffffffffffffffffffffffffff1673ffffffffffffffffffffffffffffffffffffffff16815260200190815260200160002081905550505050565b60005481565b8060011515610758826104b5565b151514151561076657600080fd5b6000600660008473ffffffffffffffffffffffffffffffffffffffff1673ffffffffffffffffffffffffffffffffffffffff168152602001908152602001600020819055506000600760008473ffffffffffffffffffffffffffffffffffffffff1673ffffffffffffffffffffffffffffffffffffffff16815260200190815260200160002060006101000a81548173ffffffffffffffffffffffffffffffffffffffff021916908373ffffffffffffffffffffffffffffffffffffffff1602179055505050565b600060011515600860008473ffffffffffffffffffffffffffffffffffffffff1673ffffffffffffffffffffffffffffffffffffffff16815260200190815260200160002060009054906101000a900460ff16151514156108925760019050610897565b600090505b919050565b60006003600660008473ffffffffffffffffffffffffffffffffffffffff1673ffffffffffffffffffffffffffffffffffffffff1681526020019081526020016000205414151561092e57600660008373ffffffffffffffffffffffffffffffffffffffff1673ffffffffffffffffffffffffffffffffffffffff168152602001908152602001600020549050610a40565b600360066000600760008673ffffffffffffffffffffffffffffffffffffffff1673ffffffffffffffffffffffffffffffffffffffff16815260200190815260200160002060009054906101000a900473ffffffffffffffffffffffffffffffffffffffff1673ffffffffffffffffffffffffffffffffffffffff1673ffffffffffffffffffffffffffffffffffffffff168152602001908152602001600020541415610a3f57610a3d600760008473ffffffffffffffffffffffffffffffffffffffff1673ffffffffffffffffffffffffffffffffffffffff16815260200190815260200160002060009054906101000a900473ffffffffffffffffffffffffffffffffffffffff1661089c565b505b5b919050565b60035481565b60025481565b600080600080600080600080600080600080600094506000935060009250610a828385610f6290919063ffffffff16565b9150600090505b600580549050811015610bd0576000610adb600583815481101515610aaa57fe5b906000526020600020900160009054906101000a900473ffffffffffffffffffffffffffffffffffffffff1661089c565b1415610afb57610af5600186610f6290919063ffffffff16565b50610bc3565b6001610b40600583815481101515610b0f57fe5b906000526020600020900160009054906101000a900473ffffffffffffffffffffffffffffffffffffffff1661089c565b1415610b6057610b5a600185610f6290919063ffffffff16565b50610bc2565b6002610ba5600583815481101515610b7457fe5b906000526020600020900160009054906101000a900473ffffffffffffffffffffffffffffffffffffffff1661089c565b1415610bc157610bbf600184610f6290919063ffffffff16565b505b5b5b8080600101915050610a89565b610be560025483610f8090919063ffffffff16565b841115610bf55760019550610bfa565b600295505b838383876002548a9b509b509b509b509b509b50505050505050909192939495565b60006003600660008473ffffffffffffffffffffffffffffffffffffffff1673ffffffffffffffffffffffffffffffffffffffff16815260200190815260200160002054141515610c6f57819050610d81565b600360066000600760008673ffffffffffffffffffffffffffffffffffffffff1673ffffffffffffffffffffffffffffffffffffffff16815260200190815260200160002060009054906101000a900473ffffffffffffffffffffffffffffffffffffffff1673ffffffffffffffffffffffffffffffffffffffff1673ffffffffffffffffffffffffffffffffffffffff168152602001908152602001600020541415610d8057610d7e600760008473ffffffffffffffffffffffffffffffffffffffff1673ffffffffffffffffffffffffffffffffffffffff16815260200190815260200160002060009054906101000a900473ffffffffffffffffffffffffffffffffffffffff1661089c565b505b5b919050565b8160011515610d94826104b5565b1515141515610da257600080fd5b8160011515610db08261082e565b1515141515610dbe57600080fd5b82600760008673ffffffffffffffffffffffffffffffffffffffff1673ffffffffffffffffffffffffffffffffffffffff16815260200190815260200160002060006101000a81548173ffffffffffffffffffffffffffffffffffffffff021916908373ffffffffffffffffffffffffffffffffffffffff1602179055506003600660008673ffffffffffffffffffffffffffffffffffffffff1673ffffffffffffffffffffffffffffffffffffffff1681526020019081526020016000208190555050505050565b8060011515610e95826104b5565b1515141515610ea357600080fd5b6001600860008473ffffffffffffffffffffffffffffffffffffffff1673ffffffffffffffffffffffffffffffffffffffff16815260200190815260200160002060006101000a81548160ff0219169083151502179055505050565b60015481565b60006003600660008473ffffffffffffffffffffffffffffffffffffffff1673ffffffffffffffffffffffffffffffffffffffff168152602001908152602001600020541415610f585760019050610f5d565b600090505b919050565b6000808284019050838110151515610f7657fe5b8091505092915050565b6000808284811515610f8e57fe5b0490508091505092915050565b815481835581811511610fc257818360005260206000209182019101610fc19190610fc7565b5b505050565b610fe991905b80821115610fe5576000816000905550600101610fcd565b5090565b905600a165627a7a723058200b0aa2745d1f51aee460f10a8c213b066ce7f026b8aabce42948b49670a3acde0029",
  "source": "pragma solidity ^0.4.17;\n\nimport \"zeppelin-solidity/contracts/math/SafeMath.sol\";\n\n\ncontract liquidDemocracy {\n  using SafeMath for uint;\n\n  /* written as seconds since unix epoch*/\n  uint public delegatePeriodEnd;\n  /* written as seconds since unix epoch*/\n  uint public votePeriodEnd;\n  /*uint public countPeriodEnd;*/\n  uint public pctQuorum;\n  bytes32 public proposalMetaData;\n\n\n/*need to account for circlular delgeation*/\n/*if delgegate delegates needs to pass on votes\n  if delegate delegates and then revokes need to track votes between parties.\n*/\n\n\n  /*tracks user registration and single signup*/\n  mapping (address => bool) internal registeredVotersMap;\n\n  /*allows contract to iterate over voters to tally votes and follow delegation chains*/\n  address[] internal registeredVotersArray;\n\n  /*0 equals no vote, 1 equals yea, 2 equals nay, 3 equals delegated vote*/\n  mapping (address => uint) internal userVotes;\n\n  /*points to voter delegate*/\n  mapping (address => address) internal userToDelegate;\n\n  /*counts number of votes delegate manages*/\n  /*mapping (address => uint) internal delegateeToVotesManaged;*/\n\n  mapping (address => bool) internal willingToBeDelegate;\n\n\n/*verifies delegate period open*/\n  modifier delegatePeriodOpen(){\n    require(block.timestamp < delegatePeriodEnd);\n    _;\n  }\n\n/*verifies vote period open*/\n  modifier votePeriodOpen(){\n    require(block.timestamp < votePeriodEnd);\n    _;\n  }\n\n  /*verifies count period open*/\n    /*modifier countPeriodOpen(){\n      require(block.timestamp < countPeriodEnd);\n      _;\n    }*/\n\n    modifier isRegisteredVoter(address _userAddress) {\n        require(_isRegisteredVoter(_userAddress) == true);\n      _;\n    }\n\n    modifier isValidDelegate(address _userAddress) {\n      require(_isValidDelegate(_userAddress) == true);\n      _;\n    }\n\n    modifier isVoteDelegated(address _userAddress) {\n      require(_isVoteDelegated(_userAddress) == false);\n      _;\n    }\n\n  function liquidTest(\n    uint _delegatePeriodEnd,\n    uint _votePeriodEnd,\n    /*uint _countPeriodEnd,*/\n    uint _pctQuorum,\n    bytes32 _proposalMetaData\n    ) internal {\n      delegatePeriodEnd = _delegatePeriodEnd;\n      votePeriodEnd = _votePeriodEnd;\n      /*countPeriodEnd = _countPeriodEnd;*/\n      pctQuorum = _pctQuorum;\n      proposalMetaData = _proposalMetaData;\n  }\n\n  function registerVoter(address _userAddress)\n  external\n  {\n\n    require(registeredVotersMap[_userAddress] == false);\n\n    registeredVotersArray.push(_userAddress);\n    registeredVotersMap[_userAddress] = true;\n\n\n  }\n\n  function allowDelegation(address _userAddress)\n  external\n  isRegisteredVoter(_userAddress)\n  {\n    willingToBeDelegate[_userAddress] = true;\n  }\n\n  function voteYea(address _userAddress)\n  external\n  isRegisteredVoter(_userAddress)\n  /*votePeriodOpen()*/\n  isVoteDelegated(_userAddress)\n  {\n\n    userVotes[_userAddress] = 1;\n\n  }\n\n  function voteNay(address _userAddress)\n  external\n  isRegisteredVoter(_userAddress)\n  /*votePeriodOpen()*/\n  isVoteDelegated(_userAddress)\n  {\n\n    userVotes[_userAddress] = 2;\n\n  }\n\n  function delegateVote(address _userAddress, address _delegateAddress)\n  external\n  isRegisteredVoter(_userAddress)\n  isValidDelegate(_delegateAddress)\n  /*delegatePeriodOpen()*/\n  {\n\n    userToDelegate[_userAddress] = _delegateAddress;\n    userVotes[_userAddress] = 3;\n\n    /*may not need this vote count*/\n\n    /*uint prevDelegateCount = delegateeToVotesManaged[_delegateAddress];\n\n    delegateeToVotesManaged[_delegateAddress] = prevDelegateCount.add(1);*/\n\n  }\n\n  function readVote(address _userAddress)\n  view\n  public\n  returns (uint _userVote)\n  {\n    if (userVotes[_userAddress] != 3) {\n      return (userVotes[_userAddress]);\n    } else if (userVotes[userToDelegate[_userAddress]] == 3) {\n       readVote(userToDelegate[_userAddress]);\n    }\n  }\n\n  function readEndVoter(address _userAddress)\n  view\n  public\n  returns (address _endVoterAddress)\n  {\n\n    if (userVotes[_userAddress] != 3) {\n      return (_userAddress);\n    } else if (userVotes[userToDelegate[_userAddress]] == 3) {\n       readVote(userToDelegate[_userAddress]);\n    }\n  }\n\n  function revokeDelegation(address _userAddress)\n  public\n  isRegisteredVoter(_userAddress)\n  /*votePeriodOpen()*/\n  {\n\n    userVotes[_userAddress] = 0;\n    userToDelegate[_userAddress] = 0;\n\n    /*may not need this count mechanism*/\n\n    /*uint prevDelegateCount = delegateeToVotesManaged[_delegateAddress];\n\n    delegateeToVotesManaged[_delegateAddress] = prevDelegateCount.sub(1);*/\n\n  }\n\n\n  function decision()\n  view\n  external\n  returns (uint _yeas, uint _nays, uint _totalVotes, uint _emptyVotes, uint _pctQuorum, uint _decision)\n  {\n\n    uint decision;\n    uint emptyVotes = 0;\n    uint countedYeas = 0;\n    uint countedNays = 0;\n    uint totalVotes = countedYeas.add(countedNays);\n\n    for (uint i = 0; i < registeredVotersArray.length; i++){\n\n      if(readVote(registeredVotersArray[i]) == 0){\n        emptyVotes.add(1);\n      } else if(readVote(registeredVotersArray[i]) == 1) {\n        countedYeas.add(1);\n      } else if(readVote(registeredVotersArray[i]) == 2) {\n        countedNays.add(1);\n      }\n    }\n\n    if (countedYeas > totalVotes.div(pctQuorum)){\n      decision = 1;\n    } else {\n      decision = 2;\n    }\n\n\n    return (countedYeas, countedNays, totalVotes, emptyVotes, pctQuorum, decision);\n  }\n\n  function _isVoteDelegated(address _userAddress)\n  view\n   internal\n   returns (bool _voteStatus){\n    if (userVotes[_userAddress] == 3) {\n      return true;\n    } else {\n      return false;\n    }\n  }\n\n  function _isRegisteredVoter(address _userAddress)\n  view\n   public\n   returns (bool _voterRegistration){\n    if (registeredVotersMap[_userAddress] == true) {\n      return true;\n    } else {\n      return false;\n    }\n  }\n\n  function _isValidDelegate(address _userAddress)\n  view\n   public\n   returns (bool _delegateStatus){\n    if (willingToBeDelegate[_userAddress] == true) {\n      return true;\n    } else {\n      return false;\n    }\n  }\n\n  function () external payable {\n    revert();\n  }\n\n}\n",
  "sourcePath": "/Users/seagraves_kevin/Desktop/ethDenver/liquidDemocracy/contracts/liquidDemocracy.sol",
  "compiler": {
    "name": "solc",
    "version": "0.4.18+commit.9cf6e910.Emscripten.clang"
  },
  "schemaVersion": "1.0.1",
  "updatedAt": "2018-02-18T07:05:48.474Z"
}